:060000000A128A11122809
:10000800FE00030E83120313D6000408D7000A0863
:10001800D8007F08D9000A128A15FC2A0A128A1108
:1000280015280A128A15CE210A128A11E0000A122E
:100038008A15CF210A128A11E1000A128A15D021E5
:100048000A128A11E2000A128A15D1210A128A11AB
:10005800E30083160313EF0183120313DB01DC01B2
:10006800DD01DE01DF0183010A128A15CA2A83161F
:10007800031351088039DB005108D6005607E10008
:10008800D01F4728482849286114610803194D28BA
:100098004E285D28610A031D522853285B2800302A
:1000A800D1000030D0000030CF000030CE00D01793
:1000B80065280030D1000030D0000030CF0000307B
:1000C800CE0055088039FF007F08DB065508D600AA
:1000D8005607E000D41F712872287328601460083E
:1000E8000319772878288728600A031D7C287D282B
:1000F80085280030D5000030D4000030D30000300F
:10010800D200D4178F280030D5000030D40000303A
:10011800D3000030D2006008031993289428992846
:100128006108031D98289928A2280030D1000030C2
:10013800D0000030CF000030CE007F2B4E08A0004A
:1001480054080A128A15A1220A128A118316031367
:100158002108E7002008E6006608D600D701D80184
:10016800D9015908DF005808DE005708DD00560895
:10017800DC006708D600D701D801D9015908E50085
:100188005808E4005708E3005608E2004F08A000AA
:1001980053080A128A15A1220A128A118316031318
:1001A8002108E7002008E6006608D600D701D80134
:1001B800D9015608DC07570803110318013E031933
:1001C800E628DD07580803110318013E0319ED2836
:1001D800DE07590803110318013E0319F428DF0745
:1001E8006708D600D701D801D9015608E207570891
:1001F80003110318013E03190229E30758080311E4
:100208000318013E03190929E407590803110318C3
:10021800013E03191029E5075008A00052080A12E8
:100228008A15A1220A128A11831603132108E700EE
:100238002008E6006608D600D701D801D90156087B
:10024800DC07570803110318013E03192C29DD07A1
:10025800580803110318013E03193329DE0759080A
:1002680003110318013E03193A29DF076708D6006E
:10027800D701D801D9015608E20757080311031816
:10028800013E03194829E307580803110318013EE2
:1002980003194F29E407590803110318013E0319EC
:1002A8005629E5070830D6000310DC0DDD0DDE0DFC
:1002B800DF0DD60B58294F08A00052080A128A15DC
:1002C800A1220A128A11831603132108E7002008C5
:1002D800E6006608D6006708D700D801D901560895
:1002E800DC07570803110318013E03197C29DD07B1
:1002F800580803110318013E03198329DE0759081A
:1003080003110318013E03198A29DF074E08A000CC
:1003180053080A128A15A1220A128A118316031396
:100328002108E7002008E6006608D6006708D7001D
:10033800D801D9015608DC07570803110318013EF4
:100348000319A729DD07580803110318013E0319EB
:10035800AE29DE07590803110318013E0319B52910
:10036800DF070830D6000310DC0DDD0DDE0DDF0DD4
:10037800D60BB7294E08A00052080A128A15A122E6
:100388000A128A11831603132108E7002008E600E1
:100398006608D6006708D700D801D9015608DC07D7
:1003A800570803110318013E0319DB29DD07580814
:1003B80003110318013E0319E229DE075908031146
:1003C8000318013E0319E929DF074F08A000540864
:1003D8000A128A15A1220A128A1183160313210808
:1003E800E7002008E6006608D6006708D700D801AD
:1003F800D9015608E207570803110318013E0319EB
:10040800062AE307580803110318013E03190D2AA9
:10041800E407590803110318013E0319142AE507D4
:100428005008A00053080A128A15A1220A128A113C
:10043800831603132108E7002008E6006608D600A3
:100448006708D700D801D9015608E20757080311F1
:100458000318013E0319312AE3075808031103184A
:10046800013E0319382AE407590803110318013E0D
:1004780003193F2AE5075008A00054080A128A15F4
:10048800A1220A128A11831603132108E700200803
:10049800E6006608D6006708D700D801D9010830F9
:1004A8000310D60DD70DD80DD90DFF3E031D542AC4
:1004B8005608E207570803110318013E0319652A75
:1004C800E307580803110318013E03196C2AE407CF
:1004D800590803110318013E0319732AE5075C083C
:1004E800D6005D08D7005E08D8005F08D90018302C
:1004F8000310D90CD80CD70CD60CFF3E031D7C2A50
:100508005608E207570803110318013E03198D2AFC
:10051800E307580803110318013E0319942AE40756
:10052800590803110318013E03199B2AE5070830EF
:10053800D6000310DC0DDD0DDE0DDF0DD60B9D2A78
:1005480061086007D600D701D70D5608823EE6003D
:1005580057080318013EFF3EE700CF2A0130D600B6
:100568000310E20DE30DE40DE50DD60BB42ADF1FF1
:10057800BE2ABF2AC02A62140130D6000310DC0D3F
:10058800DD0DDE0DDF0DD60BC22AFF30E60703189E
:10059800E70AFF30E707E41FD22AD32AB22AE0018C
:1005A800DF1FD72AD82AF42AFF305C05D600FF308F
:1005B8005D05D700FF305E05D8007F305F05D900A4
:1005C80059085804570456040319EB2AEC2AEF2A51
:1005D800E001E00AF42A621CF22AF32AF42AEC2A3F
:1005E80060080319F82AF92A2A2B0130E20700309B
:1005F80003180130E307003003180130E407003026
:1006080003180130E507651C0A2B0B2B2A2B6208FF
:10061800D6006308D7006408D8006508D9000130FF
:10062800DA00590DD90CD80CD70CD60CDA0B152BCF
:100638005908E5005808E4005708E3005608E200A6
:100648000130E6070318E70A0030E7076708803A31
:10065800FF0080307F02031D332BFF306602031C2E
:10066800362B372B422B7F3083160313E50080305F
:10067800E4000030E3000030E200732B831603131C
:100688006708803AFF0080307F02031D4D2B013040
:1006980066020318502B512B5D2B00308316031371
:1006A800E5000030E4000030E3000030E200DB0148
:1006B800732B831603136608E100FF30E205FF3051
:1006C800E3057F30E4050030E505611C6C2B6D2BDC
:1006D8006E2BE4176108D6000310560CE5005B0882
:1006E800FF007F08E5046508D1006408D0006308AE
:1006F800CF006208CE000800831603133B08803938
:10070800C5003B08BC003C07CC00BA1F8C2B8D2BC6
:100718008E2B4C144C080319922B932BA32B4C0AA9
:10072800031D972B982BA02B0030BB000030BA007C
:100738000030B9000030B800BA17BB01AB2B00304D
:10074800BB000030BA000030B9000030B8003708EC
:100758008039FF007F08C5063708BC003C07CD007C
:10076800B61FB72BB82BB92B4D144D080319BD2B49
:10077800BE2BCE2B4D0A031DC22BC32BCB2B003017
:10078800B7000030B6000030B5000030B400B6172E
:10079800B701D62B0030B7000030B6000030B500E6
:1007A8000030B4003708360435043404031DDD2B4B
:1007B800DE2BF72B0030BB000030BA000030B90048
:1007C8000030B8008030BA047F30BB044508FF0011
:1007D8007F08BB043B08B7003A08B6003908B500E3
:1007E8003808B4004E2D4C08031DFB2BFC2B052CA0
:1007F8000030B7000030B6000030B5000030B4005B
:100808004E2D4C08BC00BD013D08BF004D083C0200
:10081800BE00031CBF033E087F3EC6003F08031806
:10082800013E003EC7003B08C4003A08C30039082F
:10083800C2003808C1000030BB000030BA000030E8
:10084800B9000030B8000030CB000030CA000030DA
:10085800C9000030C800CD017B2C4D080319352C88
:10086800362C562C0130BC000310C10DC20DC30D2F
:10087800C40DBC0B382C0130BC000310B80DB90DE9
:10088800BA0DBB0DBC0B412CCB1F4B2C4C2C4D2C4B
:1008980038140130BC000310C80DC90DCA0DCB0DAA
:1008A800BC0B4F2C37084402031D642C3608430246
:1008B800031D642C35084202031D642C34084102D0
:1008C800031C672C682C772C4B173408C102350899
:1008D800031C350FC2023608031C360FC302370843
:1008E800031C370FC4020130FF007F08CD071A3000
:1008F8004D02031C802C812C312C440843044204F3
:1009080041040319882C892CA82C4814A82C0130E0
:10091800BC000310B80DB90DBA0DBB0DBC0B8D2C66
:10092800CB1F972C982C992C38140130BC0003103D
:10093800C80DC90DCA0DCB0DBC0B9B2CFF30C607CB
:100948000318C70AFF30C707BA1FAB2CAC2C8B2C77
:10095800CD01CB1FB02CB12CCD2CFF304805BC00ED
:10096800FF304905BD00FF304A05BE007F304B050A
:10097800BF003F083E043D043C040319C42CC52CA9
:10098800C82CCD01CD0ACD2C381CCB2CCC2CCD2C91
:10099800C52C4D080319D12CD22C032D0130B807D2
:1009A800003003180130B907003003180130BA07C6
:1009B800003003180130BB073B1CE32CE42C032D4B
:1009C8003808BC003908BD003A08BE003B08BF0023
:1009D8000130C0003F0DBF0CBE0CBD0CBC0CC00BE1
:1009E800EE2C3F08BB003E08BA003D08B9003C08A1
:1009F800B8000130C6070318C70A0030C707470800
:100A0800803AFF0080307F02031D0C2DFF30460224
:100A1800031C0F2D102D1E2DFF3083160313C60047
:100A28000030C7000030BB000030BA000030B90009
:100A38000030B800831603134708803AFF0080305F
:100A48007F02031D292D0130460203182C2D2D2D60
:100A58003A2D83160313C601C7010030BB000030CE
:100A6800BA000030B9000030B800C501831603137E
:100A78004608CC004C1C412D422D442DBA17482D58
:100A88007F30FF007F08BA054C08BC0003103C0CFF
:100A9800BB00EA2B0800831203132D088039B70026
:100AA8002D08AE002E07BE00AC1F5B2D5C2D5D2D02
:100AB8003E143E080319612D622D722D3E0A031D56
:100AC800662D672D6F2D0030AD000030AC00003072
:100AD800AB000030AA00AC17AD017A2D0030AD0094
:100AE8000030AC000030AB000030AA002908803983
:100AF800FF007F08B7062908AE002E07BF00A81F11
:100B0800862D872D882D3F143F0803198C2D8D2D98
:100B18009D2D3F0A031D912D922D9A2D0030A9007D
:100B28000030A8000030A7000030A600A817A901CF
:100B3800A52D0030A9000030A8000030A700003023
:100B4800A6002908280427042604031DAC2DAD2D72
:100B5800C62D0030AD000030AC000030AB000030D6
:100B6800AA008030AC047F30AD043708FF007F084E
:100B7800AD042D08A9002C08A8002B08A7002A08F6
:100B8800A6001D2F3E08031DCA2DCB2DD42D0030E5
:100B9800A9000030A8000030A7000030A6001D2FD3
:100BA8003E08AE00AF012F08B1003F082E02B0008A
:100BB800031CB10330087F3EB80031080318013E1A
:100BC800003EB9002D08B6002C08B5002B08B4006B
:100BD8002A08B3000030AD000030AC000030AB0094
:100BE8000030AA000030BD000030BC000030BB005F
:100BF8000030BA00BF014A2E3F080319042E052E03
:100C0800252E0130AE000310B30DB40DB50DB60D91
:100C1800AE0B072E0130AE000310AA0DAB0DAC0DC4
:100C2800AD0DAE0B102EBD1F1A2E1B2E1C2E2A1416
:100C38000130AE000310BA0DBB0DBC0DBD0DAE0BDF
:100C48001E2E29083602031D332E28083502031DDF
:100C5800332E27083402031D332E26083302031CC3
:100C6800362E372E462E3D172608B3022708031CBA
:100C7800270FB4022808031C280FB5022908031CF3
:100C8800290FB6020130FF007F08BF071A303F0264
:100C9800031C4F2E502E002E36083504340433041E
:100CA8000319572E582E772E3A14772E0130AE009E
:100CB8000310AA0DAB0DAC0DAD0DAE0B5C2EBD1F18
:100CC800662E672E682E2A140130AE000310BA0D66
:100CD800BB0DBC0DBD0DAE0B6A2EFF30B807031857
:100CE800B90AFF30B907AC1F7A2E7B2E5A2EBF01E6
:100CF800BD1F7F2E802E9C2EFF303A05AE00FF30A0
:100D08003B05AF00FF303C05B0007F303D05B1002A
:100D1800310830042F042E040319932E942E972E95
:100D2800BF01BF0A9C2E2A1C9A2E9B2E9C2E942E05
:100D38003F080319A02EA12ED22E0130AA07003099
:100D480003180130AB07003003180130AC0700303E
:100D580003180130AD072D1CB22EB32ED22E2A084F
:100D6800AE002B08AF002C08B0002D08B1000130F0
:100D7800B200310DB10CB00CAF0CAE0CB20BBD2EE5
:100D88003108AD003008AC002F08AB002E08AA00CF
:100D98000130B8070318B90A0030B9073908803A92
:100DA800FF0080307F02031DDB2EFF303802031C5A
:100DB800DE2EDF2EED2EFF3083120313B800003035
:100DC800B9000030AD000030AC000030AB0000309E
:100DD800AA00831203133908803AFF0080307F028B
:100DE800031DF82E013038020318FB2EFC2E092FA4
:100DF80083120313B801B9010030AD000030AC0014
:100E08000030AB000030AA00B70183120313380882
:100E1800BE003E1C102F112F132FAC17172F7F3039
:100E2800FF007F08AC053E08AE0003102E0CAD0095
:100E3800B92D080083160313AE002E080319252FB9
:100E4800262F3A2FA91F292F2A2F3A2F2609B0001B
:100E58002709B1002809B2002909B300B00A03190B
:100E6800B10A0319B20A0319B30A422F2908B300B9
:100E78002808B2002708B1002608B000290828046D
:100E880027042604031D492F4A2F532F0030A90099
:100E98000030A8000030A7000030A600D72F9630F9
:100EA800AF00632F0130FF007F08AF070130031048
:100EB800B30CB20CB10CB00CFF3E031D5B2FFE301F
:100EC8003305031D682F692F562F852F0130FF002A
:100ED8007F08AF070130B007003003180130B107B1
:100EE800003003180130B207003003180130B3078F
:100EF80001300310B30CB20CB10CB00CFF3E031D53
:100F08007D2FFF303305031D8A2F8B2F6A2F972FD4
:100F18000130AF020130AA000310B00DB10DB20DBF
:100F2800B30DAA0B902FB21B9A2F9B2FA12F023023
:100F38002F020318A02FA12F8C2F2F18A42FA52F15
:100F4800AD2FFF30B005FF30B1057F30B205FF305F
:100F5800B3050310AF0C2F08AA00AB01AC01AD011B
:100F680018300310AA0DAB0DAC0DAD0DFF3E031DDF
:100F7800B52F2A08B0042B08B1042C08B2042D0898
:100F8800B3042E080319C92FCA2FCF2FA91FCD2F9D
:100F9800CE2FCF2FB3173308A9003208A800310885
:100FA800A7003008A600080083160313A401A501B2
:100FB800201CDF2FE02FE62F2208A4070318A50A1C
:100FC8002308A50701300310A20DA30DFF3E031D42
:100FD800E72F01300310A10CA00CFF3E031DEE2FDC
:100FE80020082104031DF92FFA2FDC2F2508A10062
:060FF8002408A00008001F
:1010000008308A000408840A8207003449346E34A8
:10101000763461346C3469346434203469346E3429
:1010200070347534743421340D340A34003443344C
:101030006F346D3470346C346534743465346434B6
:0810400021340D340A340034A0
:10139C0010342734F034D8348312031363088F00CD
:1013AC0062088E0097010715093097000800831218
:1013BC000313981CE229E329E529181218161A08B8
:1013CC00F00070080800F00083160313981CEF2936
:1013DC00F029EA2970088312031399000800831678
:1013EC000313A7002608A00027080A128A152A242E
:1013FC000A128A158130831203139F00C0308316A2
:10140C0003139F00080083160313071183120313A1
:10141C00071563088F0062088E0003300A128A15C4
:10142C001F220A128A150A128A1568230A128A15B3
:10143C00080083160313A1002108A0000330031039
:10144C00A00DFF3E031D252A0310200DFF007F0871
:10145C00831203139004901010140C1083160313B2
:10146C000C140B178B170800831603130717871719
:10147C00831203139817831603131812181383126D
:10148C0003131813831603139816831203131816D9
:10149C00831603131815103099008C160B178B1725
:1014AC000800F300F101F2016E2A71087307840041
:1014BC000A128A1500200A128A150A128A15E921C5
:1014CC000A128A150130F1070318F20A0030F207EC
:1014DC007108730784000A128A1500200A128A15F3
:1014EC00003A031D7A2A7B2A5B2A0800F401F501D5
:1014FC00701C812A822A882A7208F4070318F50ABC
:10150C007308F50701300310F20DF30DFF3E031DB8
:10151C00892A01300310F10CF00CFF3E031D902AB8
:10152C0070087104031D9B2A9C2A7E2A7508F10001
:10153C007408F000080083160313A800A401A50189
:10154C002008A200A3012208A6002308A700281C3B
:10155C00B02AB12AB72A2608A4070318A50A270817
:10156C00A50701300310A60DA70DFF3E031DB82AD9
:10157C000310A80C2808031DC42AC52AAD2A250867
:10158C00A1002408A00008000A128A153A220A12A7
:10159C008A1583160313A601A60AEF300A128A15C0
:1015AC00F5210A128A150A128A1509220A128A15BD
:1015BC00831203135F08031DE42AE52ADE2A0A12AC
:1015CC008A1572240A128A150630831603179200A4
:1015DC0013309100AD309000900BF22A910BF22A4F
:1015EC00920BF22ADE2A0A128A1112280C1CFF2AEC
:1015FC00002B082B0A128A15D2210A128A15831283
:10160C0003130C108C1E0B2B0C2B242B0A128A157B
:10161C00DD210A128A1583120313DA0061305A068F
:10162C00031D192B1A2B1C2BDF01242BDF01DF0AC6
:10163C005A080A128A15DA240A128A15831203131D
:10164C005908FF0058088A0057088400560E83007A
:10165C00FE0E7E0E090083160313A300083023022E
:10166C00031C392B3A2B3D2BA001A101672BC53054
:10167C00FF007F08831203139F05831603132308AF
:10168C00A20002300310A20DFF3E031D482B0310D5
:10169C00220DFF007F08831203139F04273083164B
:1016AC000313A200A20B582B831203131F151F192F
:1016BC00602B612B5D2B1E0883160313A1001E08E3
:1016CC00A000080083120313971517119710171415
:1016DC00143083160313A0000030A10083120313EF
:1016EC00610883160313A300831203136008831687
:1016FC000313A2000A128A15E4230A128A15831214
:10170C0003136208831603132007A7008312031325
:10171C0063080318630A831603132107A80027081C
:10172C0083120313950083160313280883120313E3
:10173C0096000800F401F501700871040319A72B39
:10174C00A82BDF2BF601F60AB62B01300310F00D97
:10175C00F10DFF3E031DAC2B0130FF007F08F60797
:10176C00F11FB92BBA2BAB2B01300310F40DF50D77
:10177C00FF3E031DBB2B71087302031DC72B7008A2
:10178C007202031CCA2BCB2BD22B7008F2027108ED
:10179C00031CF303F302741401300310F10CF00C6E
:1017AC00FF3E031DD32B0130F602031DDE2BDF2B76
:1017BC00BA2B7508F1007408F000080083160313A7
:1017CC00A401A501200821040319ED2BEE2B252CD7
:1017DC00A601A60AFC2B01300310A00DA10DFF3EA3
:1017EC00031DF22B0130FF007F08A607A11FFF2B62
:1017FC00002CF12B01300310A40DA50DFF3E031D91
:10180C00012C21082302031D0D2C20082202031C8D
:10181C00102C112C182C2008A2022108031CA30345
:10182C00A302241401300310A10CA00CFF3E031DD5
:10183C00192C0130A602031D242C252C002C250864
:10184C00A1002408A000080083160313A400A5011E
:10185C006B2C0514672C8514672C0515672C8515C6
:10186C00672C8516672C0914672C8914672C0915AD
:10187C00672C25082407A100210884008313000885
:10188C00A200A3012308003A03194D2C672C22084F
:10189C00003A03192F2C013A0319312C033A03197E
:1018AC00332C013A0319352C073A0319372C013A1A
:1018BC000319392C033A03193B2C013A03193D2C1B
:1018CC00672C0130FF007F08A50720082502031CA8
:1018DC00702C712C3F2C080000300A128A15312311
:1018EC000A128A15831603132108ED002008EC0058
:1018FC004330D1003430D0000030CF000030CE0067
:10190C004430B7007F30B600C030B5000030B400B2
:10191C006C08A6006D08A700A801A90100300A12E6
:10192C008A111E270A128A15831603132908BB0075
:10193C002808BA002708B9002608B8000A128A112C
:10194C0080230A128A15831603133708D50036082C
:10195C00D4003508D3003408D2000A128A113B2077
:10196C000A128A15831603135108EB005008EA007B
:10197C004F08E9004E08E8006B08D1006A08D00057
:10198C006908CF006808CE000A128A15BE250A1213
:10199C008A15831603134E08EE006E080A128A1578
:1019AC00B2260A128A15080083120313D5003030B0
:1019BC005506031DE22CE32CEA2C00300A128A1582
:1019CC0036260A128A153F2D31305506031DEF2C91
:1019DC00F02CF72C1E300A128A1536260A128A159C
:1019EC003F2D32305506031DFC2CFD2C042D2D30C3
:1019FC000A128A1536260A128A153F2D33305506DF
:101A0C00031D092D0A2D112D5A300A128A1536265E
:101A1C000A128A153F2D34305506031D162D172D2D
:101A2C001E2D78300A128A1536260A128A153F2D79
:101A3C0035305506031D232D242D2B2D96300A12DF
:101A4C008A1536260A128A153F2D36305506031D87
:101A5C00302D312D382DB4300A128A1536260A1243
:101A6C008A153F2D01300A128A1557220A128A153F
:101A7C00452D12300A128A1557220A128A150800AF
:101A8C00031083120313420D430DC9004908031DB3
:101A9C00502D512D5A2D0030C3000030C2000030A3
:101AAC00C1000030C000BD2D4008C4004108C50075
:101ABC004208C6004308C7001F300310C70CC60CF1
:101ACC00C50CC40CFF3E031D632D4408C800C2178F
:101ADC00FF30C005FF30C105FF30C2050030C30523
:101AEC009630C902C91F7B2D7C2D962D4908803A52
:101AFC00973E0318822D832D842D512D0130031018
:101B0C00C30CC20CC10CC00CFF3E031D852D013053
:101B1C00FF007F08C907031D942D952D842DAD2D35
:101B2C0020304902031C9B2D9C2DA82D512D0130DA
:101B3C00C4000310C00DC10DC20DC30DC40B9F2DED
:101B4C000130C9024908031DAC2DAD2D9D2D48084F
:101B5C000319B12DB22DBD2DC009C109C209C3098C
:101B6C00C00A0319C10A0319C20A0319C30A0800DF
:101B7C00031083160313500D510DD7005708031D86
:101B8C00C82DC92DD22D0030D1000030D00000302E
:101B9C00CF000030CE00352E4E08D2004F08D300B7
:101BAC005008D4005108D5001F300310D50CD40CAC
:101BBC00D30CD20CFF3E031DDB2D5208D600D017E0
:101BCC00FF30CE05FF30CF05FF30D0050030D105FA
:101BDC009630D702D71FF32DF42D0E2E5708803ACE
:101BEC00973E0318FA2DFB2DFC2DC92D0130031047
:101BFC00D10CD00CCF0CCE0CFF3E031DFD2D0130B3
:101C0C00FF007F08D707031D0C2E0D2EFC2D252E53
:101C1C0020305702031C132E142E202EC92D0130F8
:101C2C00D2000310CE0DCF0DD00DD10DD20B172E2F
:101C3C000130D7025708031D242E252E152E5608C9
:101C4C000319292E2A2E352ECE09CF09D009D109F8
:101C5C00CE0A0319CF0A0319D00A0319D10A0800B6
:101C6C0083120313D400B530540203183E2E3F2EBA
:101C7C00B12E6430F2000030F3005408CA00CB01DE
:101C8C004A08F0004B08F1000A128A157C220A124D
:101C9C008A157008F6007108F7000030F71BFF304A
:101CAC00F800F90001300A128A1546270A128A1523
:101CBC00790883120313AD007808AC007708AB00E9
:101CCC007608AA004230A9001030A8000030A70006
:101CDC000030A6000A128A114F250A128A158312A7
:101CEC0003132908C3002808C2002708C1002608CE
:101CFC00C0000A128A1546250A128A15831203138C
:101D0C004008CC004108CD004208CE004308CF006B
:101D1C001430F0000030F1006108F3006008F200AC
:101D2C000A128A15A0230A128A157008831203134B
:101D3C004C07D00071080318710A4D07D1006208D6
:101D4C005007D20063080318630A5107D3005308E5
:101D5C00960052089500080083160313E200B53074
:101D6C0062020318BA2EBB2E452F6430A20000303D
:101D7C00A3006208D800D9015808A0005908A10096
:101D8C000A128A11D8270A128A15831603132008FF
:101D9C00A6002108A7000030A71BFF30A800A9004F
:101DAC0001300A128A111E270A128A158316031390
:101DBC002908BB002808BA002708B9002608B80073
:101DCC004230B7001030B6000030B5000030B4001F
:101DDC000A128A1180230A128A15831603133708F4
:101DEC00D1003608D0003508CF003408CE000A12D6
:101DFC008A15BE250A128A15831603134E08DA00BB
:101E0C004F08DB005008DC005108DD001430A00046
:101E1C000030A10083120313610883160313A3007F
:101E2C0083120313600883160313A2000A128A1587
:101E3C00E4230A128A158316031320085A07DE00BE
:101E4C0021080318210A5B07DF00831203136208C1
:101E5C00831603135E07E000831203136308031851
:101E6C00630A831603135F07E100610883120313EF
:101E7C009600831603136008831203139500080061
:101E8C0083120313A000200803194D2F4E2F622F2D
:101E9C00F91F512F522F622F7609A2007709A30048
:101EAC007809A4007909A500A20A0319A30A031949
:101EBC00A40A0319A50A6A2F7908A5007808A400BA
:101ECC007708A3007608A2007908780477047604D2
:101EDC00031D712F722F7B2F0030F9000030F8009A
:101EEC000030F7000030F600FF2F9630A1008B2F4A
:101EFC000130FF007F08A10701300310A50CA40CD2
:101F0C00A30CA20CFF3E031D832FFE302505031DE1
:101F1C00902F912F7E2FAD2F0130FF007F08A1074E
:101F2C000130A207003003180130A307003003185A
:101F3C000130A407003003180130A507013003104D
:101F4C00A50CA40CA30CA20CFF3E031DA52FFF3067
:101F5C002505031DB22FB32F922FBF2F0130A102E5
:101F6C000130FA000310A20DA30DA40DA50DFA0B60
:101F7C00B82FA41BC22FC32FC92F02302102031864
:101F8C00C82FC92FB42F2118CC2FCD2FD52FFF3010
:101F9C00A205FF30A3057F30A405FF30A505031073
:101FAC00A10C2108FA00FB01FC01FD011830031003
:101FBC00FA0DFB0DFC0DFD0DFF3E031DDD2F7A0808
:101FCC00A2047B08A3047C08A4047D08A5042008B3
:101FDC000319F12FF22FF72FF91FF52FF62FF72FEB
:101FEC00A5172508F9002408F8002308F700220893
:041FFC00F6000800E3
:08400000FF3FFF3FFF3FFF3FC0
:02400E00FA3F77
:00000001FF
