:060000000A128A11122809
:10000800FE00030E83120313D8000408D9000A085F
:10001800DA007F08DB000A128A15D62B0A128A1129
:1000280015280A128A1535210A128A11DC000A12CB
:100038008A1536210A128A11DD000A128A1537211B
:100048000A128A11DE000A128A1538210A128A1148
:10005800DF00831790308400A1300A128A11F82734
:100068000A128A1183160313EE0183120313E001A7
:1000780083010A128A15BD2A831603135108803991
:10008800DB005108D6005607E100D01F4C284D2848
:100098004E28611461080319522853286228610AFE
:1000A800031D5728582860280030D1000030D000A0
:1000B8000030CF000030CE00D0176A280030D100C1
:1000C8000030D0000030CF000030CE005508803915
:1000D800FF007F08DB065508D6005607E000D41F4E
:1000E8007628772878286014600803197C287D28EA
:1000F8008C28600A031D812882288A280030D500B0
:100108000030D4000030D3000030D200D417942837
:100118000030D5000030D4000030D3000030D200C9
:1001280060080319982899289E286108031D9D28AE
:100138009E28A7280030D1000030D0000030CF0022
:100148000030CE00842B4E08A00054080A128A15ED
:10015800EF210A128A11831603132108E7002008E9
:10016800E6006608D600D701D801D9015908DF0092
:100178005808DE005708DD005608DC006708D6007E
:10018800D701D801D9015908E5005808E4005708F3
:10019800E3005608E2004F08A00053080A128A1527
:1001A800EF210A128A11831603132108E700200899
:1001B800E6006608D600D701D801D9015608DC0741
:1001C800570803110318013E0319EB28DD075808E7
:1001D80003110318013E0319F228DE075908031119
:1001E8000318013E0319F928DF076708D600D7016D
:1001F800D801D9015608E207570803110318013E30
:1002080003190729E307580803110318013E0319C6
:100218000E29E407590803110318013E031915298B
:10022800E5075008A00052080A128A15EF210A12A1
:100238008A11831603132108E7002008E6006608E0
:10024800D600D701D801D9015608DC075708031191
:100258000318013E03193129DD0758080311031853
:10026800013E03193829DE07590803110318013E16
:1002780003193F29DF076708D600D701D801D9013C
:100288005608E207570803110318013E03194D29C0
:10029800E307580803110318013E03195429E4071A
:1002A800590803110318013E03195B29E5070830B3
:1002B800D6000310DC0DDD0DDE0DDF0DD60B5D293C
:1002C8004F08A00052080A128A15EF210A128A1153
:1002D800831603132108E7002008E6006608D60005
:1002E8006708D700D801D9015608DC075708031159
:1002F8000318013E03198129DD0758080311031863
:10030800013E03198829DE07590803110318013E25
:1003180003198F29DF074E08A00053080A128A150F
:10032800EF210A128A11831603132108E700200817
:10033800E6006608D6006708D700D801D901560834
:10034800DC07570803110318013E0319AC29DD0720
:10035800580803110318013E0319B329DE07590889
:1003680003110318013E0319BA29DF070830D60024
:100378000310DC0DDD0DDE0DDF0DD60BBC294E089C
:10038800A00052080A128A15EF210A128A11831650
:1003980003132108E7002008E6006608D60067086E
:1003A800D700D801D9015608DC07570803110318EC
:1003B800013E0319E029DD07580803110318013E1F
:1003C8000319E729DE07590803110318013E031929
:1003D800EE29DF074F08A00054080A128A15EF21FA
:1003E8000A128A11831603132108E7002008E60081
:1003F8006608D6006708D700D801D9015608E20771
:10040800570803110318013E03190B2AE30758087C
:1004180003110318013E0319122AE40759080311AE
:100428000318013E0319192AE5075008A0005308CC
:100438000A128A15EF210A128A118316031321085A
:10044800E7002008E6006608D6006708D700D8014C
:10045800D9015608E207570803110318013E03198A
:10046800362AE307580803110318013E03193D2AE9
:10047800E407590803110318013E0319442AE50744
:100488005008A00054080A128A15EF210A128A118E
:10049800831603132108E7002008E6006608D60043
:1004A8006708D700D801D90108300310D60DD70D39
:1004B800D80DD90DFF3E031D592A5608E2075708E3
:1004C80003110318013E03196A2AE30758080311A8
:1004D8000318013E0319712AE40759080311031888
:1004E800013E0319782AE5075C08D6005D08D700A5
:1004F8005E08D8005F08D90018300310D90CD80C52
:10050800D70CD60CFF3E031D812A5608E207570870
:1005180003110318013E0319922AE307580803112F
:100528000318013E0319992AE4075908031103180F
:10053800013E0319A02AE5070830D6000310DC0D98
:10054800DD0DDE0DDF0DD60BA22A61086007D6008F
:10055800D701D70D5608823EE60057080318013E1A
:10056800FF3EE700D42A0130D6000310E20DE30D68
:10057800E40DE50DD60BB92ADF1FC32AC42AC52A04
:1005880062140130D6000310DC0DDD0DDE0DDF0D29
:10059800D60BC72AFF30E6070318E70AFF30E7073C
:1005A800E41FD72AD82AB72AE001DF1FDC2ADD2A70
:1005B800F92AFF305C05D600FF305D05D700FF3013
:1005C8005E05D8007F305F05D900590858045704E4
:1005D80056040319F02AF12AF42AE001E00AF92A5C
:1005E800621CF72AF82AF92AF12A60080319FD2A59
:1005F800FE2A2F2B0130E207003003180130E307F1
:10060800003003180130E407003003180130E50713
:10061800651C0F2B102B2F2B6208D6006308D70000
:100628006408D8006508D9000130DA00590DD90CE2
:10063800D80CD70CD60CDA0B1A2B5908E500580839
:10064800E4005708E3005608E2000130E607031803
:10065800E70A0030E7076708803AFF0080307F022A
:10066800031D382BFF306602031C3B2B3C2B472B0A
:100678007F3083160313E5008030E4000030E30088
:100688000030E200782B831603136708803AFF00D6
:1006980080307F02031D522B013066020318552B50
:1006A800562B622B003083160313E5000030E4005C
:1006B8000030E3000030E200DB01782B83160313DF
:1006C8006608E100FF30E205FF30E3057F30E4050E
:1006D8000030E505611C712B722B732BE417610840
:1006E800D6000310560CE5005B08FF007F08E50400
:1006F8006508D1006408D0006308CF006208CE0006
:100708000800831603133B088039C5003B08BC006A
:100718003C07CC00BA1F912B922B932B4C144C08FE
:100728000319972B982BA82B4C0A031D9C2B9D2B48
:10073800A52B0030BB000030BA000030B9000030F3
:10074800B800BA17BB01B02B0030BB000030BA00AC
:100758000030B9000030B80037088039FF007F0842
:10076800C5063708BC003C07CD00B61FBC2BBD2B07
:10077800BE2B4D144D080319C22BC32BD32B4D0A86
:10078800031DC72BC82BD02B0030B7000030B60094
:100798000030B5000030B400B617B701DB2B0030CD
:1007A800B7000030B6000030B5000030B40037089C
:1007B800360435043404031DE22BE32BFC2B0030F4
:1007C800BB000030BA000030B9000030B8008030FB
:1007D800BA047F30BB044508FF007F08BB043B0810
:1007E800B7003A08B6003908B5003808B400532DE8
:1007F8004C08031D002C012C0A2C0030B7000030D7
:10080800B6000030B5000030B400532D4C08BC00D1
:10081800BD013D08BF004D083C02BE00031CBF03DC
:100828003E087F3EC6003F080318013E003EC70051
:100838003B08C4003A08C3003908C2003808C100A0
:100848000030BB000030BA000030B9000030B800FA
:100858000030CB000030CA000030C9000030C800AA
:10086800CD01802C4D0803193A2C3B2C5B2C013010
:10087800BC000310C10DC20DC30DC40DBC0B3D2C33
:100888000130BC000310B80DB90DBA0DBB0DBC0B7F
:10089800462CCB1F502C512C522C38140130BC0044
:1008A8000310C80DC90DCA0DCB0DBC0B542C37084D
:1008B8004402031D692C36084302031D692C3508C0
:1008C8004202031D692C34084102031C6C2C6D2C58
:1008D8007C2C4B173408C1023508031C350FC202A3
:1008E8003608031C360FC3023708031C370FC4022F
:1008F8000130FF007F08CD071A304D02031C852CFC
:10090800862C362C440843044204410403198D2CD8
:100918008E2CAD2C4814AD2C0130BC000310B80D42
:10092800B90DBA0DBB0DBC0B922CCB1F9C2C9D2C6A
:100938009E2C38140130BC000310C80DC90DCA0D17
:10094800CB0DBC0BA02CFF30C6070318C70AFF301D
:10095800C707BA1FB02CB12C902CCD01CB1FB52CDA
:10096800B62CD22CFF304805BC00FF304905BD002D
:10097800FF304A05BE007F304B05BF003F083E04EC
:100988003D043C040319C92CCA2CCD2CCD01CD0A39
:10099800D22C381CD02CD12CD22CCA2C4D0803199F
:1009A800D62CD72C082D0130B80700300318013099
:1009B800B907003003180130BA07003003180130B6
:1009C800BB073B1CE82CE92C082D3808BC0039086B
:1009D800BD003A08BE003B08BF000130C0003F0D13
:1009E800BF0CBE0CBD0CBC0CC00BF32C3F08BB00ED
:1009F8003E08BA003D08B9003C08B8000130C607F7
:100A08000318C70A0030C7074708803AFF0080303C
:100A18007F02031D112DFF304602031C142D152DD6
:100A2800232DFF3083160313C6000030C7000030A3
:100A3800BB000030BA000030B9000030B80083169F
:100A480003134708803AFF0080307F02031D2E2DD4
:100A5800013046020318312D322D3F2D8316031322
:100A6800C601C7010030BB000030BA000030B90031
:100A78000030B800C501831603134608CC004C1C8F
:100A8800462D472D492DBA174D2D7F30FF007F0881
:100A9800BA054C08BC0003103C0CBB00EF2B080047
:100AA800831203132D088039B7002D08AE002E07D6
:100AB800BE00AC1F602D612D622D3E143E08031947
:100AC800662D672D772D3E0A031D6B2D6C2D742D19
:100AD8000030AD000030AC000030AB000030AA00A0
:100AE800AC17AD017F2D0030AD000030AC000030F8
:100AF800AB000030AA0029088039FF007F08B7063C
:100B08002908AE002E07BF00A81F8B2D8C2D8D2D18
:100B18003F143F080319912D922DA22D3F0A031D62
:100B2800962D972D9F2D0030A9000030A800003089
:100B3800A7000030A600A817A901AA2D0030A90017
:100B48000030A8000030A7000030A60029082804BB
:100B580027042604031DB12DB22DCB2D0030AD0086
:100B68000030AC000030AB000030AA008030AC048C
:100B78007F30AD043708FF007F08AD042D08A900B9
:100B88002C08A8002B08A7002A08A600222F3E0838
:100B9800031DCF2DD02DD92D0030A9000030A8007D
:100BA8000030A7000030A600222F3E08AE00AF019B
:100BB8002F08B1003F082E02B000031CB103300813
:100BC8007F3EB80031080318013E003EB9002D08E9
:100BD800B6002C08B5002B08B4002A08B300003072
:100BE800AD000030AC000030AB000030AA0000308F
:100BF800BD000030BC000030BB000030BA00BF01AF
:100C08004F2E3F080319092E0A2E2A2E0130AE0056
:100C18000310B30DB40DB50DB60DAE0B0C2E01308F
:100C2800AE000310AA0DAB0DAC0DAD0DAE0B152E1D
:100C3800BD1F1F2E202E212E2A140130AE000310B6
:100C4800BA0DBB0DBC0DBD0DAE0B232E2908360207
:100C5800031D382E28083502031D382E27083402B4
:100C6800031D382E26083302031C3B2E3C2E4B2E28
:100C78003D172608B3022708031C270FB4022808CB
:100C8800031C280FB5022908031C290FB6020130DE
:100C9800FF007F08BF071A303F02031C542E552E51
:100CA800052E360835043404330403195C2E5D2EF2
:100CB8007C2E3A147C2E0130AE000310AA0DAB0D29
:100CC800AC0DAD0DAE0B612EBD1F6B2E6C2E6D2EB7
:100CD8002A140130AE000310BA0DBB0DBC0DBD0DBA
:100CE800AE0B6F2EFF30B8070318B90AFF30B907EB
:100CF800AC1F7F2E802E5F2EBF01BD1F842E852E38
:100D0800A12EFF303A05AE00FF303B05AF00FF30A3
:100D18003C05B0007F303D05B100310830042F0498
:100D28002E040319982E992E9C2EBF01BF0AA12EBE
:100D38002A1C9F2EA02EA12E992E3F080319A52EFE
:100D4800A62ED72E0130AA07003003180130AB07B2
:100D5800003003180130AC07003003180130AD072C
:100D68002D1CB72EB82ED72E2A08AE002B08AF00A0
:100D78002C08B0002D08B1000130B200310DB10CC3
:100D8800B00CAF0CAE0CB20BC22E3108AD0030085F
:100D9800AC002F08AB002E08AA000130B8070318D2
:100DA800B90A0030B9073908803AFF0080307F025D
:100DB800031DE02EFF303802031CE32EE42EF22E32
:100DC800FF3083120313B8000030B9000030AD00C3
:100DD8000030AC000030AB000030AA0083120313CF
:100DE8003908803AFF0080307F02031DFD2E013054
:100DF80038020318002F012F0E2F83120313B80196
:100E0800B9010030AD000030AC000030AB0000305C
:100E1800AA00B701831203133808BE003E1C152F21
:100E2800162F182FAC171C2F7F30FF007F08AC053A
:100E38003E08AE0003102E0CAD00BE2D0800831630
:100E48000313AE002E0803192A2F2B2F3F2FA91F9B
:100E58002E2F2F2F3F2F2609B0002709B100280970
:100E6800B2002909B300B00A0319B10A0319B20A7A
:100E78000319B30A472F2908B3002808B200270826
:100E8800B1002608B0002908280427042604031DF9
:100E98004E2F4F2F582F0030A9000030A8000030E7
:100EA800A7000030A600DC2F9630AF00682F013075
:100EB800FF007F08AF0701300310B30CB20CB10C70
:100EC800B00CFF3E031D602FFE303305031D6D2F50
:100ED8006E2F5B2F8A2F0130FF007F08AF0701308C
:100EE800B007003003180130B10700300318013093
:100EF800B207003003180130B30701300310B30CF8
:100F0800B20CB10CB00CFF3E031D822FFF3033052D
:100F1800031D8F2F902F6F2F9C2F0130AF020130B0
:100F2800AA000310B00DB10DB20DB30DAA0B952F89
:100F3800B21B9F2FA02FA62F02302F020318A52F18
:100F4800A62F912F2F18A92FAA2FB22FFF30B00547
:100F5800FF30B1057F30B205FF30B3050310AF0C89
:100F68002F08AA00AB01AC01AD0118300310AA0D7F
:100F7800AB0DAC0DAD0DFF3E031DBA2F2A08B00412
:100F88002B08B1042C08B2042D08B3042E08031949
:100F9800CE2FCF2FD42FA91FD22FD32FD42FB317B3
:100FA8003308A9003208A8003108A7003008A600B5
:100FB8000800831603130717871767309900181559
:100FC8001812831203139817831603138C160B1722
:100FD8008B17981683120313181683160313181306
:100FE800831203131813080064008001840A04069E
:100FF800031900340406F92FFF1B0A2883137F18EE
:1010080083170008840A0319FF0A080008308A00B9
:101018000408840A820700345334793473347434EE
:1010280065346D3420346934733420347234653453
:101038006134643479340D340A34003449346E34FC
:10104800763461346C3469346434203469346E34F1
:1010580070347534743421340D340A340034523405
:1010680065346334653469347634653464343A34C9
:101078002034253463340D340A34003443346F3457
:101088006D3470346C3465347434653464342134AC
:061098000D340A3400349F
:10126A0010342734F034D8344130831203139F00EA
:10127A008030831603139F000800F00083120313C3
:10128A000C1E482949294329700899000800831629
:10129A000313A00083120C1E532954294F298316C5
:1012AA0003132008831203139900080083120313FF
:1012BA005F088F005E088E009016101690101014AA
:1012CA000C10831603130C140B178B1708008316C4
:1012DA00031307118312031307150A128A155B21D8
:1012EA000A128A150A128A1585220A128A15080014
:1012FA00F401F501701C8229832989297208F407EF
:10130A000318F50A7308F50701300310F20DF30DFF
:10131A00FF3E031D8A2901300310F10CF00CFF3E39
:10132A00031D912970087104031D9C299D297F2999
:10133A007508F1007408F0000800B7297208FF0068
:10134A00710884000A128A1500200A128A150A12E4
:10135A008A1542210A128A150130F1070318F20A86
:10136A000030F207720883120313FF007108840029
:10137A000A128A1500200A128A15003A031DC62984
:10138A00C729A329080083160313A401A501201C59
:10139A00CF29D029D6292208A4070318A50A230889
:1013AA00A50701300310A20DA30DFF3E031DD72987
:1013BA0001300310A10CA00CFF3E031DDE292008FA
:1013CA002104031DE929EA29CC292508A1002408BA
:1013DA00A000080083160313A800A401A501200891
:1013EA00A200A3012208A6002308A700281CFE29A0
:1013FA00FF29052A2608A4070318A50A2708A5070E
:10140A0001300310A60DA70DFF3E031D062A031087
:10141A00A80C2808031D122A132AFB292508A10053
:10142A002408A0000800372A83160313220883120F
:10143A000313FF0083160313210884008312031386
:10144A000A128A1500200A128A150A128A154C21D4
:10145A000A128A15013083160313A1070318A20A78
:10146A000030A20783160313220883120313FF0016
:10147A008316031321088400831203130A128A15A0
:10148A0000200A128A15003A031D4C2A4D2A192AED
:10149A00080083160313A30008302302031C562AEC
:1014AA00572A5A2AA001A101842AC530FF007F08C1
:1014BA00831203139F05831603132308A200023025
:1014CA000310A20DFF3E031D652A0310220DFF0023
:1014DA007F08831203139F04273083160313A20085
:1014EA00A20B752A831203131F151F197D2A7E2A40
:1014FA007A2A1E0883160313A1001E08A0000800FA
:10150A0083120313971517119710171414308316A3
:10151A000313A0000030A100831203135D08831691
:10152A000313A300831203135C0883160313A20098
:10153A000A128A153A230A128A15831203135E08BD
:10154A00831603132007A700831203135F080318E7
:10155A005F0A831603132107A800270883120313BF
:10156A0095008316031328088312031396000800B4
:10157A000A128A11DD270A128A150A128A153921D6
:10158A000A128A150A128A156C210A128A15023061
:10159A0083160313ED000430EC00B930EB00EB0BBB
:1015AA00D42AEC0BD42AED0BD42ADB2A0130831679
:1015BA000313A1008030A2000A128A1518220A1207
:1015CA008A15831603136E08031DEC2AED2AE62AF0
:1015DA000A128A159E260A128A15E62A0A128A1100
:1015EA001228F401F501700871040319FD2AFE2A74
:1015FA00352BF601F60A0C2B01300310F00DF10D14
:10160A00FF3E031D022B0130FF007F08F607F11F82
:10161A000F2B102B012B01300310F40DF50DFF3E9B
:10162A00031D112B71087302031D1D2B7008720212
:10163A00031C202B212B282B7008F2027108031C93
:10164A00F303F302741401300310F10CF00CFF3EA3
:10165A00031D292B0130F602031D342B352B102BC9
:10166A007508F1007408F000080083160313A4013A
:10167A00A501200821040319432B442B7B2BA60127
:10168A00A60A522B01300310A00DA10DFF3E031D27
:10169A00482B0130FF007F08A607A11F552B562BA8
:1016AA00472B01300310A40DA50DFF3E031D572B38
:1016BA0021082302031D632B20082202031C662B28
:1016CA00672B6E2B2008A2022108031CA303A30286
:1016DA00241401300310A10CA00CFF3E031D6F2B34
:1016EA000130A602031D7A2B7B2B562B2508A1005D
:1016FA002408A0000800F7007130F500C12B25303E
:10170A0076060319892B8A2B942B7708840076088E
:10171A00831780000130FF007F08F707C12BA72B32
:10172A00750884000008F6000230FF007F08F507FC
:10173A00770884007608831780000130FF007F084D
:10174A00F707C12B0130F007FF30700784000A1237
:10175A008A150A200A128A15F600F300F4017408A1
:10176A00003A0319B92B9D2B7308003A0319D12BA0
:10177A00633A0319952B9D2B0130F007FF30700750
:10178A0084000A128A150A200A128A15F6007608B7
:10179A00031DD02BD12B842B77088400831780015B
:1017AA0008000C1CD92BDA2BE32B5F088F005E088C
:1017BA008E0097010715093097000C108C1EE62B36
:1017CA00E72B1F2C981CEA2BEB2BED2B1812181663
:1017DA001A08E0002430F0006008D600D701560845
:1017EA00F1005708F20090300A128A1580230A1273
:1017FA008A159030F1000130F2000A128A15A221EE
:10180A000A128A156130831203136006031D0E2C17
:10181A000F2C132C83160313EE011F2C83160313AC
:10182A00EE01EE0A8312031360080A128A152C24A9
:10183A000A128A15831203135B08FF005A088A00EA
:10184A0059088400580E8300FE0E7E0E090083128A
:10185A000313D50030305506031D342C352C3C2C8F
:10186A0000300A128A158E250A128A15942C3130F4
:10187A005506031D412C422C492C1E300A128A158A
:10188A008E250A128A15942C32305506031D4E2CC9
:10189A004F2C562C2D300A128A158E250A128A15BB
:1018AA00942C33305506031D5B2C5C2C632C5A3068
:1018BA000A128A158E250A128A15942C3430550676
:1018CA00031D682C692C702C78300A128A158E2513
:1018DA000A128A15942C35305506031D752C762C60
:1018EA007D2C96300A128A158E250A128A15942C96
:1018FA0036305506031D822C832C8A2CB4300A12EA
:10190A008A158E250A128A15942C1330F10080301C
:10191A00F2000A128A15A2210A128A159D2C333066
:10192A00F1008030F2000A128A15A2210A128A15E1
:10193A000800031083120313420D430DC90049081E
:10194A00031DA82CA92CB22C0030C3000030C20001
:10195A000030C1000030C000152D4008C400410805
:10196A00C5004208C6004308C7001F300310C70C51
:10197A00C60CC50CC40CFF3E031DBB2C4408C80092
:10198A00C217FF30C005FF30C105FF30C205003065
:10199A00C3059630C902C91FD32CD42CEE2C490892
:1019AA00803A973E0318DA2CDB2CDC2CA92C013068
:1019BA000310C30CC20CC10CC00CFF3E031DDD2C6E
:1019CA000130FF007F08C907031DEC2CED2CDC2C2D
:1019DA00052D20304902031CF32CF42C002DA92CD0
:1019EA000130C4000310C00DC10DC20DC30DC40BDC
:1019FA00F72C0130C9024908031D042D052DF52CC9
:101A0A0048080319092D0A2D152DC009C109C20953
:101A1A00C309C00A0319C10A0319C20A0319C30A6E
:101A2A000800031083160313500D510DD7005708F1
:101A3A00031D202D212D2A2D0030D1000030D00089
:101A4A000030CF000030CE008D2D4E08D2004F0856
:101A5A00D3005008D4005108D5001F300310D50C0C
:101A6A00D40CD30CD20CFF3E031D332D5208D600E2
:101A7A00D017FF30CE05FF30CF05FF30D00500303C
:101A8A00D1059630D702D71F4B2D4C2D662D5708FE
:101A9A00803A973E0318522D532D542D212D013093
:101AAA000310D10CD00CCF0CCE0CFF3E031D552DCC
:101ABA000130FF007F08D707031D642D652D542DC3
:101ACA007D2D20305702031C6B2D6C2D782D212D76
:101ADA000130D2000310CE0DCF0DD00DD10DD20B97
:101AEA006F2D0130D7025708031D7C2D7D2D6D2DDA
:101AFA0056080319812D822D8D2DCE09CF09D009C3
:101B0A00D109CE0A0319CF0A0319D00A0319D10A37
:101B1A00080083120313D400B53054020318962D1B
:101B2A00972D092E6430F2000030F3005408CA00E1
:101B3A00CB014A08F0004B08F1000A128A157D21F0
:101B4A000A128A157008F6007108F7000030F71BB0
:101B5A00FF30F800F90001300A128A1546270A12E6
:101B6A008A15790883120313AD007808AC00770848
:101B7A00AB007608AA004230A9001030A800003055
:101B8A00A7000030A6000A128A1154250A128A15E3
:101B9A00831203132908C3002808C2002708C100BA
:101BAA002608C0000A128A159E240A128A15831270
:101BBA0003134008CC004108CD004208CE00430878
:101BCA00CF001430F0000030F1005D08F3005C082B
:101BDA00F2000A128A15F6220A128A15700883126E
:101BEA0003134C07D00071080318710A4D07D1007E
:101BFA005E085007D2005F0803185F0A5107D30036
:101C0A005308960052089500080083160313E20051
:101C1A00B53062020318122E132E9D2E6430A200D4
:101C2A000030A3006208D800D9015808A00059085A
:101C3A00A1000A128A15C8210A128A1583160313EB
:101C4A002008A6002108A7000030A71BFF30A80023
:101C5A00A90001300A128A1123270A128A1583164B
:101C6A0003132908BB002808BA002708B900260868
:101C7A00B8004230B7001030B6000030B50000306E
:101C8A00B4000A128A1185230A128A1583160313CD
:101C9A003708D1003608D0003508CF003408CE0006
:101CAA000A128A1516250A128A15831603134E0874
:101CBA00DA004F08DB005008DC005108DD00143060
:101CCA00A0000030A100831203135D0883160313DA
:101CDA00A300831203135C0883160313A2000A12DB
:101CEA008A153A230A128A158316031320085A07FB
:101CFA00DE0021080318210A5B07DF0083120313A1
:101D0A005E08831603135E07E000831203135F085D
:101D1A0003185F0A831603135F07E1006108831241
:101D2A0003139600831603136008831203139500A6
:101D3A00080083160317A70100300A128A154E22DB
:101D4A000A128A1583160313210883160317A6009D
:101D5A0083160313200883160317A500433083163E
:101D6A000313D1003430D0000030CF000030CE0051
:101D7A004430B7007F30B600C030B5000030B40040
:101D8A0083160317250883160313A6008316031761
:101D9A00260883160313A700A801A90100300A1216
:101DAA008A1123270A128A15831603132908BB00EE
:101DBA002808BA002708B9002608B8000A128A11AA
:101DCA0085230A128A15831603133708D5003608A5
:101DDA00D4003508D3003408D2000A128A114020F0
:101DEA000A128A1583160313510883160317A400CF
:101DFA0083160313500883160317A30083160313CD
:101E0A004F0883160317A200831603134E0883167E
:101E1A000317A100240883160313D100831603179E
:101E2A00230883160313D000831603172208831688
:101E3A000313CF0083160317210883160313CE005A
:101E4A000A128A1516250A128A15831603134E08D2
:101E5A0083160317A70027080A128A150A260A12E8
:101E6A008A15153083160313EA004B30E900BD309A
:101E7A00E800E80B3E2FE90B3E2FEA0B3E2F452FD9
:101E8A00080083120313A000200803194D2F4E2FB8
:101E9A00622FF91F512F522F622F7609A20077095C
:101EAA00A3007809A4007909A500A20A0319A30AC4
:101EBA000319A40A0319A50A6A2F7908A500780844
:101ECA00A4007708A3007608A200790878047704AA
:101EDA007604031D712F722F7B2F0030F90000301A
:101EEA00F8000030F7000030F600FF2F9630A1000E
:101EFA008B2F0130FF007F08A10701300310A50CCA
:101F0A00A40CA30CA20CFF3E031D832FFE30250553
:101F1A00031D902F912F7E2FAD2F0130FF007F08D8
:101F2A00A1070130A207003003180130A3070030CF
:101F3A0003180130A407003003180130A507013047
:101F4A000310A50CA40CA30CA20CFF3E031DA52F85
:101F5A00FF302505031DB22FB32F922FBF2F01305B
:101F6A00A1020130FA000310A20DA30DA40DA50DC4
:101F7A00FA0BB82FA41BC22FC32FC92F023021027C
:101F8A000318C82FC92FB42F2118CC2FCD2FD52F26
:101F9A00FF30A205FF30A3057F30A405FF30A50559
:101FAA000310A10C2108FA00FB01FC01FD01183005
:101FBA000310FA0DFB0DFC0DFD0DFF3E031DDD2F79
:101FCA007A08A2047B08A3047C08A4047D08A5045B
:101FDA0020080319F12FF22FF72FF91FF52FF62FEB
:101FEA00F72FA5172508F9002408F8002308F70099
:061FFA002208F6000800B9
:08400000FF3FFF3FFF3FFF3FC0
:02400E00FA3F77
:00000001FF
